{
  "contractName": "Hiring",
  "abi": [
    {
      "inputs": [],
      "payable": false,
      "stateMutability": "nonpayable",
      "type": "constructor"
    },
    {
      "anonymous": false,
      "inputs": [
        {
          "indexed": false,
          "internalType": "uint256",
          "name": "AchievId",
          "type": "uint256"
        },
        {
          "indexed": false,
          "internalType": "string",
          "name": "ProjName",
          "type": "string"
        },
        {
          "indexed": false,
          "internalType": "uint256",
          "name": "achValue",
          "type": "uint256"
        }
      ],
      "name": "UserAchievCreated",
      "type": "event"
    },
    {
      "anonymous": false,
      "inputs": [
        {
          "indexed": false,
          "internalType": "uint256",
          "name": "UserId",
          "type": "uint256"
        },
        {
          "indexed": false,
          "internalType": "string",
          "name": "Name",
          "type": "string"
        }
      ],
      "name": "UserCreated",
      "type": "event"
    },
    {
      "constant": true,
      "inputs": [],
      "name": "AchievId",
      "outputs": [
        {
          "internalType": "uint256",
          "name": "",
          "type": "uint256"
        }
      ],
      "payable": false,
      "stateMutability": "view",
      "type": "function"
    },
    {
      "constant": true,
      "inputs": [
        {
          "internalType": "uint256",
          "name": "",
          "type": "uint256"
        }
      ],
      "name": "Achievements",
      "outputs": [
        {
          "internalType": "string",
          "name": "achName",
          "type": "string"
        },
        {
          "internalType": "string",
          "name": "ProjName",
          "type": "string"
        },
        {
          "internalType": "uint256",
          "name": "achValue",
          "type": "uint256"
        },
        {
          "internalType": "uint256",
          "name": "ProjAllocatedTime",
          "type": "uint256"
        },
        {
          "internalType": "uint256",
          "name": "ProjCompTime",
          "type": "uint256"
        }
      ],
      "payable": false,
      "stateMutability": "view",
      "type": "function"
    },
    {
      "constant": true,
      "inputs": [],
      "name": "UserId",
      "outputs": [
        {
          "internalType": "uint256",
          "name": "",
          "type": "uint256"
        }
      ],
      "payable": false,
      "stateMutability": "view",
      "type": "function"
    },
    {
      "constant": true,
      "inputs": [
        {
          "internalType": "uint256",
          "name": "",
          "type": "uint256"
        }
      ],
      "name": "Users",
      "outputs": [
        {
          "internalType": "string",
          "name": "Name",
          "type": "string"
        },
        {
          "internalType": "string",
          "name": "Title",
          "type": "string"
        },
        {
          "internalType": "uint256",
          "name": "Salary",
          "type": "uint256"
        }
      ],
      "payable": false,
      "stateMutability": "view",
      "type": "function"
    },
    {
      "constant": false,
      "inputs": [
        {
          "internalType": "string",
          "name": "Name",
          "type": "string"
        },
        {
          "internalType": "string",
          "name": "Title",
          "type": "string"
        },
        {
          "internalType": "uint256",
          "name": "Salary",
          "type": "uint256"
        }
      ],
      "name": "createUser",
      "outputs": [],
      "payable": false,
      "stateMutability": "nonpayable",
      "type": "function"
    },
    {
      "constant": false,
      "inputs": [
        {
          "internalType": "string",
          "name": "achName",
          "type": "string"
        },
        {
          "internalType": "string",
          "name": "ProjName",
          "type": "string"
        },
        {
          "internalType": "uint256",
          "name": "achValue",
          "type": "uint256"
        },
        {
          "internalType": "uint256",
          "name": "ProjAllocatedTime",
          "type": "uint256"
        },
        {
          "internalType": "uint256",
          "name": "ProjCompTime",
          "type": "uint256"
        }
      ],
      "name": "CreateUserAchiev",
      "outputs": [],
      "payable": false,
      "stateMutability": "nonpayable",
      "type": "function"
    },
    {
      "constant": true,
      "inputs": [
        {
          "internalType": "uint256",
          "name": "UId",
          "type": "uint256"
        }
      ],
      "name": "ReadUser",
      "outputs": [
        {
          "internalType": "string",
          "name": "",
          "type": "string"
        },
        {
          "internalType": "string",
          "name": "",
          "type": "string"
        },
        {
          "internalType": "uint256",
          "name": "",
          "type": "uint256"
        }
      ],
      "payable": false,
      "stateMutability": "view",
      "type": "function"
    },
    {
      "constant": true,
      "inputs": [
        {
          "internalType": "uint256",
          "name": "AchId",
          "type": "uint256"
        }
      ],
      "name": "ReadUserAchiev",
      "outputs": [
        {
          "internalType": "string",
          "name": "",
          "type": "string"
        },
        {
          "internalType": "string",
          "name": "",
          "type": "string"
        },
        {
          "internalType": "uint256",
          "name": "",
          "type": "uint256"
        },
        {
          "internalType": "uint256",
          "name": "",
          "type": "uint256"
        },
        {
          "internalType": "uint256",
          "name": "",
          "type": "uint256"
        }
      ],
      "payable": false,
      "stateMutability": "view",
      "type": "function"
    }
  ],
  "bytecode": "0x6080604052600060025560006003553480156200001b57600080fd5b506200007160405180604001604052806008815260200167557365724e616d6560c01b81525060405180604001604052806009815260200168557365725469746c6560b81b81525060006200007760201b60201c565b62000239565b6002805460010190819055604080516060810182528581526020808201869052818301859052600093845283815291909220825180519192620000c09284929091019062000194565b506020828101518051620000db926001850192019062000194565b50604082015181600201559050507fee305ea110dac8054a0415771cedeb3372a69ef1c3916abb2f5e1b3658d77c0e600254846040518083815260200180602001828103825283818151815260200191508051906020019080838360005b838110156200015357818101518382015260200162000139565b50505050905090810190601f168015620001815780820380516001836020036101000a031916815260200191505b50935050505060405180910390a1505050565b828054600181600116156101000203166002900490600052602060002090601f016020900481019282601f10620001d757805160ff191683800117855562000207565b8280016001018555821562000207579182015b8281111562000207578251825591602001919060010190620001ea565b506200021592915062000219565b5090565b6200023691905b8082111562000215576000815560010162000220565b90565b610e2880620002496000396000f3fe608060405234801561001057600080fd5b50600436106100885760003560e01c806365f87c051161005b57806365f87c05146102d6578063cee55b81146102de578063d2cddda6146102fb578063fa0935fe1461042857610088565b8063026c3bfe1461008d5780631e98fd1c146100a757806340107f24146101a9578063596f5a4b146102b9575b600080fd5b61009561055c565b60408051918252519081900360200190f35b6100c4600480360360208110156100bd57600080fd5b5035610562565b604051808060200180602001848152602001838103835286818151815260200191508051906020019080838360005b8381101561010b5781810151838201526020016100f3565b50505050905090810190601f1680156101385780820380516001836020036101000a031916815260200191505b50838103825285518152855160209182019187019080838360005b8381101561016b578181015183820152602001610153565b50505050905090810190601f1680156101985780820380516001836020036101000a031916815260200191505b509550505050505060405180910390f35b6101c6600480360360208110156101bf57600080fd5b50356106a4565b604051808060200180602001868152602001858152602001848152602001838103835288818151815260200191508051906020019080838360005b83811015610219578181015183820152602001610201565b50505050905090810190601f1680156102465780820380516001836020036101000a031916815260200191505b50838103825287518152875160209182019189019080838360005b83811015610279578181015183820152602001610261565b50505050905090810190601f1680156102a65780820380516001836020036101000a031916815260200191505b5097505050505050505060405180910390f35b6100c4600480360360208110156102cf57600080fd5b50356107f0565b61009561095d565b6101c6600480360360208110156102f457600080fd5b5035610963565b6104266004803603606081101561031157600080fd5b810190602081018135600160201b81111561032b57600080fd5b82018360208201111561033d57600080fd5b803590602001918460018302840111600160201b8311171561035e57600080fd5b91908080601f0160208091040260200160405190810160405280939291908181526020018383808284376000920191909152509295949360208101935035915050600160201b8111156103b057600080fd5b8201836020820111156103c257600080fd5b803590602001918460018302840111600160201b831117156103e357600080fd5b91908080601f0160208091040260200160405190810160405280939291908181526020018383808284376000920191909152509295505091359250610b00915050565b005b610426600480360360a081101561043e57600080fd5b810190602081018135600160201b81111561045857600080fd5b82018360208201111561046a57600080fd5b803590602001918460018302840111600160201b8311171561048b57600080fd5b91908080601f0160208091040260200160405190810160405280939291908181526020018383808284376000920191909152509295949360208101935035915050600160201b8111156104dd57600080fd5b8201836020820111156104ef57600080fd5b803590602001918460018302840111600160201b8311171561051057600080fd5b91908080601f0160208091040260200160405190810160405280939291908181526020018383808284376000920191909152509295505082359350505060208101359060400135610c16565b60025481565b6000602081815291815260409081902080548251601f6002600019610100600186161502019093169290920491820185900485028101850190935280835290928391908301828280156105f65780601f106105cb576101008083540402835291602001916105f6565b820191906000526020600020905b8154815290600101906020018083116105d957829003601f168201915b505050505090806001018054600181600116156101000203166002900480601f0160208091040260200160405190810160405280929190818152602001828054600181600116156101000203166002900480156106945780601f1061066957610100808354040283529160200191610694565b820191906000526020600020905b81548152906001019060200180831161067757829003601f168201915b5050505050908060020154905083565b60016020818152600092835260409283902080548451600294821615610100026000190190911693909304601f81018390048302840183019094528383529283918301828280156107365780601f1061070b57610100808354040283529160200191610736565b820191906000526020600020905b81548152906001019060200180831161071957829003601f168201915b505050505090806001018054600181600116156101000203166002900480601f0160208091040260200160405190810160405280929190818152602001828054600181600116156101000203166002900480156107d45780601f106107a9576101008083540402835291602001916107d4565b820191906000526020600020905b8154815290600101906020018083116107b757829003601f168201915b5050505050908060020154908060030154908060040154905085565b6000818152602081815260408083208054825160026001831615610100026000190190921691909104601f8101859004850282018501909352828152606094859490938593918301828280156108875780601f1061085c57610100808354040283529160200191610887565b820191906000526020600020905b81548152906001019060200180831161086a57829003601f168201915b5050505050905060606000808781526020019081526020016000206001018054600181600116156101000203166002900480601f0160208091040260200160405190810160405280929190818152602001828054600181600116156101000203166002900480156109395780601f1061090e57610100808354040283529160200191610939565b820191906000526020600020905b81548152906001019060200180831161091c57829003601f168201915b50505060009889525050602087905260409096206002015491969194509092505050565b60035481565b60608060008060006060600160008881526020019081526020016000206000018054600181600116156101000203166002900480601f016020809104026020016040519081016040528092919081815260200182805460018160011615610100020316600290048015610a175780601f106109ec57610100808354040283529160200191610a17565b820191906000526020600020905b8154815290600101906020018083116109fa57829003601f168201915b505050505090506060600160008981526020019081526020016000206001018054600181600116156101000203166002900480601f016020809104026020016040519081016040528092919081815260200182805460018160011615610100020316600290048015610aca5780601f10610a9f57610100808354040283529160200191610aca565b820191906000526020600020905b815481529060010190602001808311610aad57829003601f168201915b50505060009a8b5250506001602052604090982060028101546003820154600490920154939a9098509096509194509092505050565b6002805460010190819055604080516060810182528581526020808201869052818301859052600093845283815291909220825180519192610b4792849290910190610d58565b506020828101518051610b609260018501920190610d58565b50604082015181600201559050507fee305ea110dac8054a0415771cedeb3372a69ef1c3916abb2f5e1b3658d77c0e600254846040518083815260200180602001828103825283818151815260200191508051906020019080838360005b83811015610bd6578181015183820152602001610bbe565b50505050905090810190601f168015610c035780820380516001836020036101000a031916815260200191505b50935050505060405180910390a1505050565b600380546001908101918290556040805160a0810182528881526020808201899052818301889052606082018790526080820186905260009485529283529220825180519192610c6b92849290910190610d58565b506020828101518051610c849260018501920190610d58565b506040820151816002015560608201518160030155608082015181600401559050507fdbc20bcf309fce3f52352bc5ee7fb1640078bca22b6d55ca011512c267a46d5060035485856040518084815260200180602001838152602001828103825284818151815260200191508051906020019080838360005b83811015610d15578181015183820152602001610cfd565b50505050905090810190601f168015610d425780820380516001836020036101000a031916815260200191505b5094505050505060405180910390a15050505050565b828054600181600116156101000203166002900490600052602060002090601f016020900481019282601f10610d9957805160ff1916838001178555610dc6565b82800160010185558215610dc6579182015b82811115610dc6578251825591602001919060010190610dab565b50610dd2929150610dd6565b5090565b610df091905b80821115610dd25760008155600101610ddc565b9056fea265627a7a723158207fad843e100bf263e2169c33a2bfdb8c77bf32f68a99583e4d2c3fe24b2b21c064736f6c63430005100032",
  "source": "// SPDX-License-Identifier: GPL-3.0\r\npragma solidity = 0.5.16;\r\n\r\ncontract Hiring {\r\n\r\n    struct User {\r\n        string Name;\r\n        string Title;\r\n        uint Salary;\r\n    }\r\n\r\n    struct Achievement {\r\n        string achName;\r\n        string ProjName;\r\n        uint achValue;\r\n        uint ProjAllocatedTime;\r\n        uint ProjCompTime;\r\n    }\r\n\r\n    \r\n    mapping (uint => User) public Users;\r\n    mapping (uint => Achievement) public Achievements;\r\n\r\n    event UserCreated(\r\n        uint UserId,\r\n        string Name\r\n    );\r\n\r\n    event UserAchievCreated(\r\n        uint AchievId,\r\n        string ProjName,\r\n        uint achValue\r\n    );\r\n\r\n    constructor() public {\r\n        createUser('UserName', 'UserTitle', 0);\r\n    }\r\n\r\n    uint public UserId = 0;\r\n    function createUser(string memory Name, string memory Title, uint Salary) public {\r\n        UserId++;\r\n        Users[UserId] = User(Name, Title, Salary);\r\n        emit UserCreated(UserId, Name);\r\n    }\r\n\r\n    uint public AchievId = 0;\r\n    function CreateUserAchiev(string memory achName, string memory ProjName, uint achValue, uint ProjAllocatedTime, uint ProjCompTime) public {\r\n        AchievId++;\r\n        Achievements[AchievId] = Achievement(achName, ProjName, achValue, ProjAllocatedTime, ProjCompTime);\r\n        emit UserAchievCreated(AchievId, ProjName, achValue);\r\n    }\r\n\r\n    function ReadUser(uint UId) public view returns(string memory, string memory, uint) {\r\n        string memory Name = Users[UId].Name;\r\n        string memory Title = Users[UId].Title;\r\n        uint Salary = Users[UId].Salary;\r\n        \r\n        return ( Name, Title, Salary);\r\n    }\r\n\r\n    function ReadUserAchiev(uint AchId) public view returns(string memory, string memory, uint, uint, uint) {\r\n        string memory achName = Achievements[AchId].achName;\r\n        string memory ProjName = Achievements[AchId].ProjName;\r\n        uint achValue = Achievements[AchId].achValue;\r\n        uint ProjAllocatedTime = Achievements[AchId].ProjAllocatedTime;\r\n        uint ProjCompTime = Achievements[AchId].ProjCompTime;\r\n\r\n        return (achName, ProjName, achValue, ProjAllocatedTime, ProjCompTime);\r\n    }\r\n\r\n\r\n\r\n\r\n\r\n\r\n\r\n\r\n\r\n}",
  "sourcePath": "C:\\Users\\kunaa\\Documents\\SmartHR\\contracts\\Hiring.sol",
  "compiler": {
    "name": "solc",
    "version": "0.5.16+commit.9c3226ce.Emscripten.clang"
  },
  "schemaVersion": "3.4.8",
  "updatedAt": "2022-08-15T20:42:28.006Z",
  "networkType": "ethereum",
  "devdoc": {
    "methods": {}
  },
  "userdoc": {
    "methods": {}
  }
}