{
  "contractName": "Hiring",
  "abi": [
    {
      "inputs": [],
      "payable": false,
      "stateMutability": "nonpayable",
      "type": "constructor"
    },
    {
      "anonymous": false,
      "inputs": [
        {
          "indexed": false,
          "internalType": "uint256",
          "name": "AchievId",
          "type": "uint256"
        },
        {
          "indexed": false,
          "internalType": "string",
          "name": "ProjName",
          "type": "string"
        },
        {
          "indexed": false,
          "internalType": "uint256",
          "name": "achValue",
          "type": "uint256"
        }
      ],
      "name": "UserAchievCreated",
      "type": "event"
    },
    {
      "anonymous": false,
      "inputs": [
        {
          "indexed": false,
          "internalType": "uint256",
          "name": "UserId",
          "type": "uint256"
        },
        {
          "indexed": false,
          "internalType": "string",
          "name": "Name",
          "type": "string"
        }
      ],
      "name": "UserCreated",
      "type": "event"
    },
    {
      "constant": true,
      "inputs": [],
      "name": "AchievId",
      "outputs": [
        {
          "internalType": "uint256",
          "name": "",
          "type": "uint256"
        }
      ],
      "payable": false,
      "stateMutability": "view",
      "type": "function"
    },
    {
      "constant": true,
      "inputs": [
        {
          "internalType": "uint256",
          "name": "",
          "type": "uint256"
        }
      ],
      "name": "Achievements",
      "outputs": [
        {
          "internalType": "uint256",
          "name": "UserId_forKey",
          "type": "uint256"
        },
        {
          "internalType": "string",
          "name": "achName",
          "type": "string"
        },
        {
          "internalType": "string",
          "name": "ProjName",
          "type": "string"
        },
        {
          "internalType": "uint256",
          "name": "achValue",
          "type": "uint256"
        },
        {
          "internalType": "uint256",
          "name": "ProjAllocatedTime",
          "type": "uint256"
        },
        {
          "internalType": "uint256",
          "name": "ProjCompTime",
          "type": "uint256"
        }
      ],
      "payable": false,
      "stateMutability": "view",
      "type": "function"
    },
    {
      "constant": true,
      "inputs": [],
      "name": "UserId",
      "outputs": [
        {
          "internalType": "uint256",
          "name": "",
          "type": "uint256"
        }
      ],
      "payable": false,
      "stateMutability": "view",
      "type": "function"
    },
    {
      "constant": true,
      "inputs": [
        {
          "internalType": "uint256",
          "name": "",
          "type": "uint256"
        }
      ],
      "name": "Users",
      "outputs": [
        {
          "internalType": "string",
          "name": "Name",
          "type": "string"
        },
        {
          "internalType": "string",
          "name": "Title",
          "type": "string"
        },
        {
          "internalType": "uint256",
          "name": "Salary",
          "type": "uint256"
        }
      ],
      "payable": false,
      "stateMutability": "view",
      "type": "function"
    },
    {
      "constant": false,
      "inputs": [
        {
          "internalType": "string",
          "name": "Name",
          "type": "string"
        },
        {
          "internalType": "string",
          "name": "Title",
          "type": "string"
        },
        {
          "internalType": "uint256",
          "name": "Salary",
          "type": "uint256"
        }
      ],
      "name": "createUser",
      "outputs": [],
      "payable": false,
      "stateMutability": "nonpayable",
      "type": "function"
    },
    {
      "constant": false,
      "inputs": [
        {
          "internalType": "uint256",
          "name": "UserId_forKey",
          "type": "uint256"
        },
        {
          "internalType": "string",
          "name": "achName",
          "type": "string"
        },
        {
          "internalType": "string",
          "name": "ProjName",
          "type": "string"
        },
        {
          "internalType": "uint256",
          "name": "achValue",
          "type": "uint256"
        },
        {
          "internalType": "uint256",
          "name": "ProjAllocatedTime",
          "type": "uint256"
        },
        {
          "internalType": "uint256",
          "name": "ProjCompTime",
          "type": "uint256"
        }
      ],
      "name": "CreateUserAchiev",
      "outputs": [],
      "payable": false,
      "stateMutability": "nonpayable",
      "type": "function"
    }
  ],
  "bytecode": "0x6080604052600060025560006003553480156200001b57600080fd5b506200007160405180604001604052806008815260200167557365724e616d6560c01b81525060405180604001604052806009815260200168557365725469746c6560b81b8152506000620000cf60201b60201c565b620000c96000604051806040016040528060078152602001666163684e616d6560c81b8152506040518060400160405280600881526020016750726f6a4e616d6560c01b8152506000806000620001e960201b60201c565b62000400565b60408051606081018252848152602080820185905281830184905260025460009081528082529290922081518051929391926200011092849201906200035b565b5060208281015180516200012b92600185019201906200035b565b506040918201516002918201558054600101908190558151818152602080820184815287519483019490945286517fee305ea110dac8054a0415771cedeb3372a69ef1c3916abb2f5e1b3658d77c0e948893929091606084019185019080838360005b83811015620001a85781810151838201526020016200018e565b50505050905090810190601f168015620001d65780820380516001836020036101000a031916815260200191505b50935050505060405180910390a1505050565b6040518060c0016040528087815260200186815260200185815260200184815260200183815260200182815250600160006003548152602001908152602001600020600082015181600001556020820151816001019080519060200190620002539291906200035b565b5060408201518051620002719160028401916020909101906200035b565b50606082015181600301556080820151816004015560a082015181600501559050506003600081548092919060010191905055507fdbc20bcf309fce3f52352bc5ee7fb1640078bca22b6d55ca011512c267a46d5060035485856040518084815260200180602001838152602001828103825284818151815260200191508051906020019080838360005b8381101562000316578181015183820152602001620002fc565b50505050905090810190601f168015620003445780820380516001836020036101000a031916815260200191505b5094505050505060405180910390a1505050505050565b828054600181600116156101000203166002900490600052602060002090601f016020900481019282601f106200039e57805160ff1916838001178555620003ce565b82800160010185558215620003ce579182015b82811115620003ce578251825591602001919060010190620003b1565b50620003dc929150620003e0565b5090565b620003fd91905b80821115620003dc5760008155600101620003e7565b90565b610af080620004106000396000f3fe608060405234801561001057600080fd5b50600436106100625760003560e01c8063026c3bfe1461006757806315c75ddd146100815780631e98fd1c146101be57806340107f24146102c057806365f87c05146103d7578063d2cddda6146103df575b600080fd5b61006f61050a565b60408051918252519081900360200190f35b6101bc600480360360c081101561009757600080fd5b81359190810190604081016020820135600160201b8111156100b857600080fd5b8201836020820111156100ca57600080fd5b803590602001918460018302840111600160201b831117156100eb57600080fd5b91908080601f0160208091040260200160405190810160405280939291908181526020018383808284376000920191909152509295949360208101935035915050600160201b81111561013d57600080fd5b82018360208201111561014f57600080fd5b803590602001918460018302840111600160201b8311171561017057600080fd5b91908080601f0160208091040260200160405190810160405280939291908181526020018383808284376000920191909152509295505082359350505060208101359060400135610510565b005b6101db600480360360208110156101d457600080fd5b503561067b565b604051808060200180602001848152602001838103835286818151815260200191508051906020019080838360005b8381101561022257818101518382015260200161020a565b50505050905090810190601f16801561024f5780820380516001836020036101000a031916815260200191505b50838103825285518152855160209182019187019080838360005b8381101561028257818101518382015260200161026a565b50505050905090810190601f1680156102af5780820380516001836020036101000a031916815260200191505b509550505050505060405180910390f35b6102dd600480360360208110156102d657600080fd5b50356107bd565b604051808781526020018060200180602001868152602001858152602001848152602001838103835288818151815260200191508051906020019080838360005b8381101561033657818101518382015260200161031e565b50505050905090810190601f1680156103635780820380516001836020036101000a031916815260200191505b50838103825287518152875160209182019189019080838360005b8381101561039657818101518382015260200161037e565b50505050905090810190601f1680156103c35780820380516001836020036101000a031916815260200191505b509850505050505050505060405180910390f35b61006f610907565b6101bc600480360360608110156103f557600080fd5b810190602081018135600160201b81111561040f57600080fd5b82018360208201111561042157600080fd5b803590602001918460018302840111600160201b8311171561044257600080fd5b91908080601f0160208091040260200160405190810160405280939291908181526020018383808284376000920191909152509295949360208101935035915050600160201b81111561049457600080fd5b8201836020820111156104a657600080fd5b803590602001918460018302840111600160201b831117156104c757600080fd5b91908080601f016020809104026020016040519081016040528093929190818152602001838380828437600092019190915250929550509135925061090d915050565b60025481565b6040518060c0016040528087815260200186815260200185815260200184815260200183815260200182815250600160006003548152602001908152602001600020600082015181600001556020820151816001019080519060200190610578929190610a20565b5060408201518051610594916002840191602090910190610a20565b50606082015181600301556080820151816004015560a082015181600501559050506003600081548092919060010191905055507fdbc20bcf309fce3f52352bc5ee7fb1640078bca22b6d55ca011512c267a46d5060035485856040518084815260200180602001838152602001828103825284818151815260200191508051906020019080838360005b8381101561063757818101518382015260200161061f565b50505050905090810190601f1680156106645780820380516001836020036101000a031916815260200191505b5094505050505060405180910390a1505050505050565b6000602081815291815260409081902080548251601f60026000196101006001861615020190931692909204918201859004850281018501909352808352909283919083018282801561070f5780601f106106e45761010080835404028352916020019161070f565b820191906000526020600020905b8154815290600101906020018083116106f257829003601f168201915b505050505090806001018054600181600116156101000203166002900480601f0160208091040260200160405190810160405280929190818152602001828054600181600116156101000203166002900480156107ad5780601f10610782576101008083540402835291602001916107ad565b820191906000526020600020905b81548152906001019060200180831161079057829003601f168201915b5050505050908060020154905083565b600160208181526000928352604092839020805481840180548651600296821615610100026000190190911695909504601f810185900485028601850190965285855290949193929091908301828280156108595780601f1061082e57610100808354040283529160200191610859565b820191906000526020600020905b81548152906001019060200180831161083c57829003601f168201915b50505060028085018054604080516020601f60001961010060018716150201909416959095049283018590048502810185019091528181529596959450909250908301828280156108eb5780601f106108c0576101008083540402835291602001916108eb565b820191906000526020600020905b8154815290600101906020018083116108ce57829003601f168201915b5050505050908060030154908060040154908060050154905086565b60035481565b604080516060810182528481526020808201859052818301849052600254600090815280825292909220815180519293919261094c9284920190610a20565b5060208281015180516109659260018501920190610a20565b506040918201516002918201558054600101908190558151818152602080820184815287519483019490945286517fee305ea110dac8054a0415771cedeb3372a69ef1c3916abb2f5e1b3658d77c0e948893929091606084019185019080838360005b838110156109e05781810151838201526020016109c8565b50505050905090810190601f168015610a0d5780820380516001836020036101000a031916815260200191505b50935050505060405180910390a1505050565b828054600181600116156101000203166002900490600052602060002090601f016020900481019282601f10610a6157805160ff1916838001178555610a8e565b82800160010185558215610a8e579182015b82811115610a8e578251825591602001919060010190610a73565b50610a9a929150610a9e565b5090565b610ab891905b80821115610a9a5760008155600101610aa4565b9056fea265627a7a72315820c515c3c46eaf19c4c357ae0ec7d07a89c4fac131c2b4e3f1788c760adf6ff4ba64736f6c63430005100032",
  "source": "// SPDX-License-Identifier: GPL-3.0\r\npragma solidity = 0.5.16;\r\n\r\ncontract Hiring {\r\n\r\n    struct User {\r\n        string Name;\r\n        string Title;\r\n        uint Salary;\r\n    }\r\n\r\n    struct Achievement {\r\n        uint UserId_forKey;\r\n        string achName;\r\n        string ProjName;\r\n        uint achValue;\r\n        uint ProjAllocatedTime;\r\n        uint ProjCompTime;\r\n    }\r\n\r\n    \r\n    mapping (uint => User) public Users;\r\n    mapping (uint => Achievement) public Achievements;\r\n\r\n    event UserCreated(\r\n        uint UserId,\r\n        string Name\r\n    );\r\n\r\n    event UserAchievCreated(\r\n        uint AchievId,\r\n        string ProjName,\r\n        uint achValue\r\n    );\r\n\r\n    constructor() public {\r\n        createUser('UserName', 'UserTitle', 0);\r\n        CreateUserAchiev(0, \"achName\", \"ProjName\", 0, 0, 0);\r\n\r\n    }\r\n\r\n    uint public UserId = 0;\r\n    function createUser(string memory Name, string memory Title, uint Salary) public {\r\n        Users[UserId] = User(Name, Title, Salary);\r\n        UserId++;\r\n        emit UserCreated(UserId, Name);\r\n    }\r\n\r\n    uint public AchievId = 0;\r\n    function CreateUserAchiev(uint UserId_forKey, string memory achName, string memory ProjName, uint achValue, uint ProjAllocatedTime, uint ProjCompTime) public {\r\n        Achievements[AchievId] = Achievement(UserId_forKey, achName, ProjName, achValue, ProjAllocatedTime, ProjCompTime);\r\n        AchievId++;\r\n        emit UserAchievCreated(AchievId, ProjName, achValue);\r\n    }\r\n\r\n//    function ReadUser(uint UId) public view returns(string memory, string memory, uint) {\r\n//        string memory Name = Users[UId].Name;\r\n//        string memory Title = Users[UId].Title;\r\n//        uint Salary = Users[UId].Salary;\r\n//\r\n//        return ( Name, Title, Salary);\r\n//    }\r\n//\r\n//    function ReadUserAchiev(uint AchId) public view returns(string memory, string memory, uint, uint, uint) {\r\n//        string memory achName = Achievements[AchId].achName;\r\n//        string memory ProjName = Achievements[AchId].ProjName;\r\n//        uint achValue = Achievements[AchId].achValue;\r\n//        uint ProjAllocatedTime = Achievements[AchId].ProjAllocatedTime;\r\n//        uint ProjCompTime = Achievements[AchId].ProjCompTime;\r\n//\r\n//        return (achName, ProjName, achValue, ProjAllocatedTime, ProjCompTime);\r\n//    }\r\n\r\n\r\n\r\n\r\n\r\n\r\n\r\n\r\n\r\n}",
  "sourcePath": "C:\\Users\\kunaa\\Documents\\SmartHR\\contracts\\Hiring.sol",
  "compiler": {
    "name": "solc",
    "version": "0.5.16+commit.9c3226ce.Emscripten.clang"
  },
  "schemaVersion": "3.4.8",
  "updatedAt": "2022-08-16T01:13:45.347Z",
  "networkType": "ethereum",
  "devdoc": {
    "methods": {}
  },
  "userdoc": {
    "methods": {}
  }
}