{
  "contractName": "Hiring",
  "abi": [
    {
      "constant": false,
      "inputs": [
        {
          "internalType": "string",
          "name": "Name",
          "type": "string"
        },
        {
          "internalType": "string",
          "name": "Title",
          "type": "string"
        },
        {
          "internalType": "uint256",
          "name": "Salary",
          "type": "uint256"
        }
      ],
      "name": "createUser",
      "outputs": [],
      "payable": false,
      "stateMutability": "nonpayable",
      "type": "function"
    },
    {
      "constant": false,
      "inputs": [
        {
          "internalType": "string",
          "name": "achName",
          "type": "string"
        },
        {
          "internalType": "string",
          "name": "ProjName",
          "type": "string"
        },
        {
          "internalType": "uint256",
          "name": "achValue",
          "type": "uint256"
        },
        {
          "internalType": "uint256",
          "name": "ProjAllocatedTime",
          "type": "uint256"
        },
        {
          "internalType": "uint256",
          "name": "ProjCompTime",
          "type": "uint256"
        }
      ],
      "name": "CreateUserAchiev",
      "outputs": [],
      "payable": false,
      "stateMutability": "nonpayable",
      "type": "function"
    },
    {
      "constant": true,
      "inputs": [
        {
          "internalType": "uint256",
          "name": "UId",
          "type": "uint256"
        }
      ],
      "name": "ReadUser",
      "outputs": [
        {
          "internalType": "string",
          "name": "",
          "type": "string"
        },
        {
          "internalType": "string",
          "name": "",
          "type": "string"
        },
        {
          "internalType": "uint256",
          "name": "",
          "type": "uint256"
        }
      ],
      "payable": false,
      "stateMutability": "view",
      "type": "function"
    },
    {
      "constant": true,
      "inputs": [
        {
          "internalType": "uint256",
          "name": "AchId",
          "type": "uint256"
        }
      ],
      "name": "ReadUserAchiev",
      "outputs": [
        {
          "internalType": "string",
          "name": "",
          "type": "string"
        },
        {
          "internalType": "string",
          "name": "",
          "type": "string"
        },
        {
          "internalType": "uint256",
          "name": "",
          "type": "uint256"
        },
        {
          "internalType": "uint256",
          "name": "",
          "type": "uint256"
        },
        {
          "internalType": "uint256",
          "name": "",
          "type": "uint256"
        }
      ],
      "payable": false,
      "stateMutability": "view",
      "type": "function"
    }
  ],
  "bytecode": "0x60806040526001600255600160035534801561001a57600080fd5b506109aa8061002a6000396000f3fe608060405234801561001057600080fd5b506004361061004c5760003560e01c8063596f5a4b14610051578063cee55b8114610153578063d2cddda614610263578063fa0935fe14610390575b600080fd5b61006e6004803603602081101561006757600080fd5b50356104c4565b604051808060200180602001848152602001838103835286818151815260200191508051906020019080838360005b838110156100b557818101518382015260200161009d565b50505050905090810190601f1680156100e25780820380516001836020036101000a031916815260200191505b50838103825285518152855160209182019187019080838360005b838110156101155781810151838201526020016100fd565b50505050905090810190601f1680156101425780820380516001836020036101000a031916815260200191505b509550505050505060405180910390f35b6101706004803603602081101561016957600080fd5b5035610631565b604051808060200180602001868152602001858152602001848152602001838103835288818151815260200191508051906020019080838360005b838110156101c35781810151838201526020016101ab565b50505050905090810190601f1680156101f05780820380516001836020036101000a031916815260200191505b50838103825287518152875160209182019189019080838360005b8381101561022357818101518382015260200161020b565b50505050905090810190601f1680156102505780820380516001836020036101000a031916815260200191505b5097505050505050505060405180910390f35b61038e6004803603606081101561027957600080fd5b810190602081018135600160201b81111561029357600080fd5b8201836020820111156102a557600080fd5b803590602001918460018302840111600160201b831117156102c657600080fd5b91908080601f0160208091040260200160405190810160405280939291908181526020018383808284376000920191909152509295949360208101935035915050600160201b81111561031857600080fd5b82018360208201111561032a57600080fd5b803590602001918460018302840111600160201b8311171561034b57600080fd5b91908080601f01602080910402602001604051908101604052809392919081815260200183838082843760009201919091525092955050913592506107ce915050565b005b61038e600480360360a08110156103a657600080fd5b810190602081018135600160201b8111156103c057600080fd5b8201836020820111156103d257600080fd5b803590602001918460018302840111600160201b831117156103f357600080fd5b91908080601f0160208091040260200160405190810160405280939291908181526020018383808284376000920191909152509295949360208101935035915050600160201b81111561044557600080fd5b82018360208201111561045757600080fd5b803590602001918460018302840111600160201b8311171561047857600080fd5b91908080601f0160208091040260200160405190810160405280939291908181526020018383808284376000920191909152509295505082359350505060208101359060400135610840565b6000818152602081815260408083208054825160026001831615610100026000190190921691909104601f81018590048502820185019093528281526060948594909385939183018282801561055b5780601f106105305761010080835404028352916020019161055b565b820191906000526020600020905b81548152906001019060200180831161053e57829003601f168201915b5050505050905060606000808781526020019081526020016000206001018054600181600116156101000203166002900480601f01602080910402602001604051908101604052809291908181526020018280546001816001161561010002031660029004801561060d5780601f106105e25761010080835404028352916020019161060d565b820191906000526020600020905b8154815290600101906020018083116105f057829003601f168201915b50505060009889525050602087905260409096206002015491969194509092505050565b60608060008060006060600160008881526020019081526020016000206000018054600181600116156101000203166002900480601f0160208091040260200160405190810160405280929190818152602001828054600181600116156101000203166002900480156106e55780601f106106ba576101008083540402835291602001916106e5565b820191906000526020600020905b8154815290600101906020018083116106c857829003601f168201915b505050505090506060600160008981526020019081526020016000206001018054600181600116156101000203166002900480601f0160208091040260200160405190810160405280929190818152602001828054600181600116156101000203166002900480156107985780601f1061076d57610100808354040283529160200191610798565b820191906000526020600020905b81548152906001019060200180831161077b57829003601f168201915b50505060009a8b5250506001602052604090982060028101546003820154600490920154939a9098509096509194509092505050565b604080516060810182528481526020808201859052818301849052600254600090815280825292909220815180519293919261080d92849201906108da565b50602082810151805161082692600185019201906108da565b506040919091015160029182015580546001019055505050565b6040805160a0810182528681526020808201879052818301869052606082018590526080820184905260035460009081526001825292909220815180519293919261088e92849201906108da565b5060208281015180516108a792600185019201906108da565b50604082015160028201556060820151600380830191909155608090920151600490910155805460010190555050505050565b828054600181600116156101000203166002900490600052602060002090601f016020900481019282601f1061091b57805160ff1916838001178555610948565b82800160010185558215610948579182015b8281111561094857825182559160200191906001019061092d565b50610954929150610958565b5090565b61097291905b80821115610954576000815560010161095e565b9056fea265627a7a72315820584b79c209d3fbaf20fe568bd3629b6daa7c9079f93f592bf7387a7e80020a3b64736f6c63430005100032",
  "source": "// SPDX-License-Identifier: GPL-3.0\r\npragma solidity = 0.5.16;\r\n\r\ncontract Hiring {\r\n\r\n    struct User {\r\n        string Name;\r\n        string Title;\r\n        uint Salary;\r\n    }\r\n\r\n    struct Achievement {\r\n        string achName;\r\n        string ProjName;\r\n        uint achValue;\r\n        uint ProjAllocatedTime;\r\n        uint ProjCompTime;\r\n    }\r\n\r\n    mapping (uint => User) Users;\r\n    mapping (uint => Achievement) Achievements;\r\n\r\n    uint UserId = 1;\r\n    function createUser(string memory Name, string memory Title, uint Salary) public {\r\n        Users[UserId] = User(Name, Title, Salary);\r\n        UserId++;\r\n    }\r\n\r\n    uint AchievId = 1;\r\n    function CreateUserAchiev(string memory achName, string memory ProjName, uint achValue, uint ProjAllocatedTime, uint ProjCompTime) public {\r\n        Achievements[AchievId] = Achievement(achName, ProjName, achValue, ProjAllocatedTime, ProjCompTime);\r\n        AchievId++;\r\n    }\r\n\r\n\r\n    function ReadUser(uint UId) public view returns(string memory, string memory, uint) {\r\n        string memory Name = Users[UId].Name;\r\n        string memory Title = Users[UId].Title;\r\n        uint Salary = Users[UId].Salary;\r\n        \r\n        return ( Name, Title, Salary);\r\n    }\r\n\r\n    function ReadUserAchiev(uint AchId) public view returns(string memory, string memory, uint, uint, uint) {\r\n        string memory achName = Achievements[AchId].achName;\r\n        string memory ProjName = Achievements[AchId].ProjName;\r\n        uint achValue = Achievements[AchId].achValue;\r\n        uint ProjAllocatedTime = Achievements[AchId].ProjAllocatedTime;\r\n        uint ProjCompTime = Achievements[AchId].ProjCompTime;\r\n\r\n        return (achName, ProjName, achValue, ProjAllocatedTime, ProjCompTime);\r\n    }\r\n\r\n\r\n\r\n\r\n\r\n\r\n\r\n\r\n\r\n}",
  "sourcePath": "C:\\Users\\kunaa\\Documents\\SmartHR\\contracts\\Hiring.sol",
  "compiler": {
    "name": "solc",
    "version": "0.5.16+commit.9c3226ce.Emscripten.clang"
  },
  "schemaVersion": "3.4.8",
  "updatedAt": "2022-08-12T19:21:38.936Z",
  "networkType": "ethereum",
  "devdoc": {
    "methods": {}
  },
  "userdoc": {
    "methods": {}
  }
}